{
	"_format": "hh-sol-artifact-1",
	"contractName": "ERC20",
	"sourceName": "contracts/FakeUSD.sol",
	"abi": [
		{
			"inputs": [],
			"stateMutability": "nonpayable",
			"type": "constructor"
		},
		{
			"anonymous": false,
			"inputs": [
				{
					"indexed": true,
					"internalType": "address",
					"name": "owner",
					"type": "address"
				},
				{
					"indexed": true,
					"internalType": "address",
					"name": "spender",
					"type": "address"
				},
				{
					"indexed": false,
					"internalType": "uint256",
					"name": "value",
					"type": "uint256"
				}
			],
			"name": "Approval",
			"type": "event"
		},
		{
			"anonymous": false,
			"inputs": [
				{
					"indexed": true,
					"internalType": "address",
					"name": "from",
					"type": "address"
				},
				{
					"indexed": true,
					"internalType": "address",
					"name": "to",
					"type": "address"
				},
				{
					"indexed": false,
					"internalType": "uint256",
					"name": "value",
					"type": "uint256"
				}
			],
			"name": "Transfer",
			"type": "event"
		},
		{
			"inputs": [
				{
					"internalType": "address",
					"name": "owner",
					"type": "address"
				},
				{
					"internalType": "address",
					"name": "spender",
					"type": "address"
				}
			],
			"name": "allowance",
			"outputs": [
				{
					"internalType": "uint256",
					"name": "",
					"type": "uint256"
				}
			],
			"stateMutability": "view",
			"type": "function"
		},
		{
			"inputs": [
				{
					"internalType": "address",
					"name": "spender",
					"type": "address"
				},
				{
					"internalType": "uint256",
					"name": "amount",
					"type": "uint256"
				}
			],
			"name": "approve",
			"outputs": [
				{
					"internalType": "bool",
					"name": "",
					"type": "bool"
				}
			],
			"stateMutability": "nonpayable",
			"type": "function"
		},
		{
			"inputs": [
				{
					"internalType": "address",
					"name": "account",
					"type": "address"
				}
			],
			"name": "balanceOf",
			"outputs": [
				{
					"internalType": "uint256",
					"name": "",
					"type": "uint256"
				}
			],
			"stateMutability": "view",
			"type": "function"
		},
		{
			"inputs": [],
			"name": "decimals",
			"outputs": [
				{
					"internalType": "uint8",
					"name": "",
					"type": "uint8"
				}
			],
			"stateMutability": "pure",
			"type": "function"
		},
		{
			"inputs": [
				{
					"internalType": "address",
					"name": "spender",
					"type": "address"
				},
				{
					"internalType": "uint256",
					"name": "subtractedValue",
					"type": "uint256"
				}
			],
			"name": "decreaseAllowance",
			"outputs": [
				{
					"internalType": "bool",
					"name": "",
					"type": "bool"
				}
			],
			"stateMutability": "nonpayable",
			"type": "function"
		},
		{
			"inputs": [
				{
					"internalType": "address",
					"name": "spender",
					"type": "address"
				},
				{
					"internalType": "uint256",
					"name": "addedValue",
					"type": "uint256"
				}
			],
			"name": "increaseAllowance",
			"outputs": [
				{
					"internalType": "bool",
					"name": "",
					"type": "bool"
				}
			],
			"stateMutability": "nonpayable",
			"type": "function"
		},
		{
			"inputs": [
				{
					"internalType": "uint256",
					"name": "amount",
					"type": "uint256"
				}
			],
			"name": "mint",
			"outputs": [
				{
					"internalType": "bool",
					"name": "",
					"type": "bool"
				}
			],
			"stateMutability": "nonpayable",
			"type": "function"
		},
		{
			"inputs": [],
			"name": "name",
			"outputs": [
				{
					"internalType": "string",
					"name": "",
					"type": "string"
				}
			],
			"stateMutability": "view",
			"type": "function"
		},
		{
			"inputs": [
				{
					"internalType": "address",
					"name": "l1L2Address",
					"type": "address"
				}
			],
			"name": "set_l1L2Address",
			"outputs": [
				{
					"internalType": "bool",
					"name": "",
					"type": "bool"
				}
			],
			"stateMutability": "nonpayable",
			"type": "function"
		},
		{
			"inputs": [],
			"name": "symbol",
			"outputs": [
				{
					"internalType": "string",
					"name": "",
					"type": "string"
				}
			],
			"stateMutability": "view",
			"type": "function"
		},
		{
			"inputs": [],
			"name": "totalSupply",
			"outputs": [
				{
					"internalType": "uint256",
					"name": "",
					"type": "uint256"
				}
			],
			"stateMutability": "view",
			"type": "function"
		},
		{
			"inputs": [
				{
					"internalType": "address",
					"name": "recipient",
					"type": "address"
				},
				{
					"internalType": "uint256",
					"name": "amount",
					"type": "uint256"
				}
			],
			"name": "transfer",
			"outputs": [
				{
					"internalType": "bool",
					"name": "",
					"type": "bool"
				}
			],
			"stateMutability": "nonpayable",
			"type": "function"
		},
		{
			"inputs": [
				{
					"internalType": "address",
					"name": "sender",
					"type": "address"
				},
				{
					"internalType": "address",
					"name": "recipient",
					"type": "address"
				},
				{
					"internalType": "uint256",
					"name": "amount",
					"type": "uint256"
				}
			],
			"name": "transferFrom",
			"outputs": [
				{
					"internalType": "bool",
					"name": "",
					"type": "bool"
				}
			],
			"stateMutability": "nonpayable",
			"type": "function"
		}
	],
	"bytecode": "0x60a06040526040518060400160405280600781526020017f46616b6555534400000000000000000000000000000000000000000000000000815250600390805190602001906200005192919062000102565b506040518060400160405280600581526020017f4641555344000000000000000000000000000000000000000000000000000000815250600490805190602001906200009f92919062000102565b50348015620000ad57600080fd5b50620000be620000fa60201b60201c565b73ffffffffffffffffffffffffffffffffffffffff1660808173ffffffffffffffffffffffffffffffffffffffff1660601b8152505062000217565b600033905090565b8280546200011090620001b2565b90600052602060002090601f01602090048101928262000134576000855562000180565b82601f106200014f57805160ff191683800117855562000180565b8280016001018555821562000180579182015b828111156200017f57825182559160200191906001019062000162565b5b5090506200018f919062000193565b5090565b5b80821115620001ae57600081600090555060010162000194565b5090565b60006002820490506001821680620001cb57607f821691505b60208210811415620001e257620001e1620001e8565b5b50919050565b7f4e487b7100000000000000000000000000000000000000000000000000000000600052602260045260246000fd5b60805160601c6116c462000233600039600050506116c46000f3fe608060405234801561001057600080fd5b50600436106100cf5760003560e01c806370a082311161008c578063a0712d6811610066578063a0712d681461023c578063a457c2d71461026c578063a9059cbb1461029c578063dd62ed3e146102cc576100cf565b806370a08231146101be5780637d134f59146101ee57806395d89b411461021e576100cf565b806306fdde03146100d4578063095ea7b3146100f257806318160ddd1461012257806323b872dd14610140578063313ce56714610170578063395093511461018e575b600080fd5b6100dc6102fc565b6040516100e9919061136d565b60405180910390f35b61010c60048036038101906101079190610f7d565b61038e565b6040516101199190611352565b60405180910390f35b61012a6103ac565b604051610137919061148f565b60405180910390f35b61015a60048036038101906101559190610f2e565b6103b6565b6040516101679190611352565b60405180910390f35b6101786104ae565b60405161018591906114aa565b60405180910390f35b6101a860048036038101906101a39190610f7d565b6104b7565b6040516101b59190611352565b60405180910390f35b6101d860048036038101906101d39190610ec9565b610563565b6040516101e5919061148f565b60405180910390f35b61020860048036038101906102039190610ec9565b6105ab565b6040516102159190611352565b60405180910390f35b6102266105f7565b604051610233919061136d565b60405180910390f35b61025660048036038101906102519190610fb9565b610689565b6040516102639190611352565b60405180910390f35b61028660048036038101906102819190610f7d565b610789565b6040516102939190611352565b60405180910390f35b6102b660048036038101906102b19190610f7d565b610874565b6040516102c39190611352565b60405180910390f35b6102e660048036038101906102e19190610ef2565b610892565b6040516102f3919061148f565b60405180910390f35b60606003805461030b906115bf565b80601f0160208091040260200160405190810160405280929190818152602001828054610337906115bf565b80156103845780601f1061035957610100808354040283529160200191610384565b820191906000526020600020905b81548152906001019060200180831161036757829003601f168201915b5050505050905090565b60006103a261039b610919565b8484610921565b6001905092915050565b6000600254905090565b60006103c3848484610aec565b6000600160008673ffffffffffffffffffffffffffffffffffffffff1673ffffffffffffffffffffffffffffffffffffffff168152602001908152602001600020600061040e610919565b73ffffffffffffffffffffffffffffffffffffffff1673ffffffffffffffffffffffffffffffffffffffff1681526020019081526020016000205490508281101561048e576040517f08c379a0000000000000000000000000000000000000000000000000000000008152600401610485906113ef565b60405180910390fd5b6104a28561049a610919565b858403610921565b60019150509392505050565b60006012905090565b60006105596104c4610919565b8484600160006104d2610919565b73ffffffffffffffffffffffffffffffffffffffff1673ffffffffffffffffffffffffffffffffffffffff16815260200190815260200160002060008873ffffffffffffffffffffffffffffffffffffffff1673ffffffffffffffffffffffffffffffffffffffff1681526020019081526020016000205461055491906114e1565b610921565b6001905092915050565b60008060008373ffffffffffffffffffffffffffffffffffffffff1673ffffffffffffffffffffffffffffffffffffffff168152602001908152602001600020549050919050565b600081600560006101000a81548173ffffffffffffffffffffffffffffffffffffffff021916908373ffffffffffffffffffffffffffffffffffffffff16021790555060019050919050565b606060048054610606906115bf565b80601f0160208091040260200160405190810160405280929190818152602001828054610632906115bf565b801561067f5780601f106106545761010080835404028352916020019161067f565b820191906000526020600020905b81548152906001019060200180831161066257829003601f168201915b5050505050905090565b600061069c610696610919565b83610d57565b6107806106a7610919565b600560009054906101000a900473ffffffffffffffffffffffffffffffffffffffff1684600160006106d7610919565b73ffffffffffffffffffffffffffffffffffffffff1673ffffffffffffffffffffffffffffffffffffffff1681526020019081526020016000206000600560009054906101000a900473ffffffffffffffffffffffffffffffffffffffff1673ffffffffffffffffffffffffffffffffffffffff1673ffffffffffffffffffffffffffffffffffffffff1681526020019081526020016000205461077b91906114e1565b610921565b60019050919050565b60008060016000610798610919565b73ffffffffffffffffffffffffffffffffffffffff1673ffffffffffffffffffffffffffffffffffffffff16815260200190815260200160002060008573ffffffffffffffffffffffffffffffffffffffff1673ffffffffffffffffffffffffffffffffffffffff16815260200190815260200160002054905082811015610855576040517f08c379a000000000000000000000000000000000000000000000000000000000815260040161084c9061144f565b60405180910390fd5b610869610860610919565b85858403610921565b600191505092915050565b6000610888610881610919565b8484610aec565b6001905092915050565b6000600160008473ffffffffffffffffffffffffffffffffffffffff1673ffffffffffffffffffffffffffffffffffffffff16815260200190815260200160002060008373ffffffffffffffffffffffffffffffffffffffff1673ffffffffffffffffffffffffffffffffffffffff16815260200190815260200160002054905092915050565b600033905090565b600073ffffffffffffffffffffffffffffffffffffffff168373ffffffffffffffffffffffffffffffffffffffff161415610991576040517f08c379a00000000000000000000000000000000000000000000000000000000081526004016109889061142f565b60405180910390fd5b600073ffffffffffffffffffffffffffffffffffffffff168273ffffffffffffffffffffffffffffffffffffffff161415610a01576040517f08c379a00000000000000000000000000000000000000000000000000000000081526004016109f8906113af565b60405180910390fd5b80600160008573ffffffffffffffffffffffffffffffffffffffff1673ffffffffffffffffffffffffffffffffffffffff16815260200190815260200160002060008473ffffffffffffffffffffffffffffffffffffffff1673ffffffffffffffffffffffffffffffffffffffff168152602001908152602001600020819055508173ffffffffffffffffffffffffffffffffffffffff168373ffffffffffffffffffffffffffffffffffffffff167f8c5be1e5ebec7d5bd14f71427d1e84f3dd0314c0f7b2291e5b200ac8c7c3b92583604051610adf919061148f565b60405180910390a3505050565b600073ffffffffffffffffffffffffffffffffffffffff168373ffffffffffffffffffffffffffffffffffffffff161415610b5c576040517f08c379a0000000000000000000000000000000000000000000000000000000008152600401610b539061140f565b60405180910390fd5b600073ffffffffffffffffffffffffffffffffffffffff168273ffffffffffffffffffffffffffffffffffffffff161415610bcc576040517f08c379a0000000000000000000000000000000000000000000000000000000008152600401610bc39061138f565b60405180910390fd5b60008060008573ffffffffffffffffffffffffffffffffffffffff1673ffffffffffffffffffffffffffffffffffffffff16815260200190815260200160002054905081811015610c52576040517f08c379a0000000000000000000000000000000000000000000000000000000008152600401610c49906113cf565b60405180910390fd5b8181036000808673ffffffffffffffffffffffffffffffffffffffff1673ffffffffffffffffffffffffffffffffffffffff16815260200190815260200160002081905550816000808573ffffffffffffffffffffffffffffffffffffffff1673ffffffffffffffffffffffffffffffffffffffff1681526020019081526020016000206000828254610ce591906114e1565b925050819055508273ffffffffffffffffffffffffffffffffffffffff168473ffffffffffffffffffffffffffffffffffffffff167fddf252ad1be2c89b69c2b068fc378daa952ba7f163c4a11628f55a4df523b3ef84604051610d49919061148f565b60405180910390a350505050565b600073ffffffffffffffffffffffffffffffffffffffff168273ffffffffffffffffffffffffffffffffffffffff161415610dc7576040517f08c379a0000000000000000000000000000000000000000000000000000000008152600401610dbe9061146f565b60405180910390fd5b8060026000828254610dd991906114e1565b92505081905550806000808473ffffffffffffffffffffffffffffffffffffffff1673ffffffffffffffffffffffffffffffffffffffff1681526020019081526020016000206000828254610e2e91906114e1565b925050819055508173ffffffffffffffffffffffffffffffffffffffff16600073ffffffffffffffffffffffffffffffffffffffff167fddf252ad1be2c89b69c2b068fc378daa952ba7f163c4a11628f55a4df523b3ef83604051610e93919061148f565b60405180910390a35050565b600081359050610eae81611660565b92915050565b600081359050610ec381611677565b92915050565b600060208284031215610edb57600080fd5b6000610ee984828501610e9f565b91505092915050565b60008060408385031215610f0557600080fd5b6000610f1385828601610e9f565b9250506020610f2485828601610e9f565b9150509250929050565b600080600060608486031215610f4357600080fd5b6000610f5186828701610e9f565b9350506020610f6286828701610e9f565b9250506040610f7386828701610eb4565b9150509250925092565b60008060408385031215610f9057600080fd5b6000610f9e85828601610e9f565b9250506020610faf85828601610eb4565b9150509250929050565b600060208284031215610fcb57600080fd5b6000610fd984828501610eb4565b91505092915050565b610feb81611549565b82525050565b6000610ffc826114c5565b61100681856114d0565b935061101681856020860161158c565b61101f8161164f565b840191505092915050565b60006110376023836114d0565b91507f45524332303a207472616e7366657220746f20746865207a65726f206164647260008301527f65737300000000000000000000000000000000000000000000000000000000006020830152604082019050919050565b600061109d6022836114d0565b91507f45524332303a20617070726f766520746f20746865207a65726f20616464726560008301527f73730000000000000000000000000000000000000000000000000000000000006020830152604082019050919050565b60006111036026836114d0565b91507f45524332303a207472616e7366657220616d6f756e742065786365656473206260008301527f616c616e636500000000000000000000000000000000000000000000000000006020830152604082019050919050565b60006111696028836114d0565b91507f45524332303a207472616e7366657220616d6f756e742065786365656473206160008301527f6c6c6f77616e63650000000000000000000000000000000000000000000000006020830152604082019050919050565b60006111cf6025836114d0565b91507f45524332303a207472616e736665722066726f6d20746865207a65726f20616460008301527f64726573730000000000000000000000000000000000000000000000000000006020830152604082019050919050565b60006112356024836114d0565b91507f45524332303a20617070726f76652066726f6d20746865207a65726f2061646460008301527f72657373000000000000000000000000000000000000000000000000000000006020830152604082019050919050565b600061129b6025836114d0565b91507f45524332303a2064656372656173656420616c6c6f77616e63652062656c6f7760008301527f207a65726f0000000000000000000000000000000000000000000000000000006020830152604082019050919050565b6000611301601f836114d0565b91507f45524332303a206d696e7420746f20746865207a65726f2061646472657373006000830152602082019050919050565b61133d81611575565b82525050565b61134c8161157f565b82525050565b60006020820190506113676000830184610fe2565b92915050565b600060208201905081810360008301526113878184610ff1565b905092915050565b600060208201905081810360008301526113a88161102a565b9050919050565b600060208201905081810360008301526113c881611090565b9050919050565b600060208201905081810360008301526113e8816110f6565b9050919050565b600060208201905081810360008301526114088161115c565b9050919050565b60006020820190508181036000830152611428816111c2565b9050919050565b6000602082019050818103600083015261144881611228565b9050919050565b600060208201905081810360008301526114688161128e565b9050919050565b60006020820190508181036000830152611488816112f4565b9050919050565b60006020820190506114a46000830184611334565b92915050565b60006020820190506114bf6000830184611343565b92915050565b600081519050919050565b600082825260208201905092915050565b60006114ec82611575565b91506114f783611575565b9250827fffffffffffffffffffffffffffffffffffffffffffffffffffffffffffffffff0382111561152c5761152b6115f1565b5b828201905092915050565b600061154282611555565b9050919050565b60008115159050919050565b600073ffffffffffffffffffffffffffffffffffffffff82169050919050565b6000819050919050565b600060ff82169050919050565b60005b838110156115aa57808201518184015260208101905061158f565b838111156115b9576000848401525b50505050565b600060028204905060018216806115d757607f821691505b602082108114156115eb576115ea611620565b5b50919050565b7f4e487b7100000000000000000000000000000000000000000000000000000000600052601160045260246000fd5b7f4e487b7100000000000000000000000000000000000000000000000000000000600052602260045260246000fd5b6000601f19601f8301169050919050565b61166981611537565b811461167457600080fd5b50565b61168081611575565b811461168b57600080fd5b5056fea2646970667358221220c14e5a0a43d983930d3e9b475e287eb629317fbc0b5aa0547173da79e8024e2f64736f6c63430008000033",
	"linkReferences": {},
	"deployedLinkReferences": {}
}