{
	"_format": "hh-sol-artifact-1",
	"contractName": "L1L2",
	"sourceName": "contracts/L1L2.sol",
	"abi": [
		{
			"inputs": [
				{
					"internalType": "address",
					"name": "starknetCore",
					"type": "address"
				}
			],
			"stateMutability": "nonpayable",
			"type": "constructor"
		},
		{
			"anonymous": false,
			"inputs": [
				{
					"indexed": true,
					"internalType": "address",
					"name": "user",
					"type": "address"
				},
				{
					"indexed": true,
					"internalType": "uint256",
					"name": "starkey",
					"type": "uint256"
				}
			],
			"name": "Register",
			"type": "event"
		},
		{
			"inputs": [
				{
					"internalType": "uint256",
					"name": "amount",
					"type": "uint256"
				},
				{
					"internalType": "uint256",
					"name": "user",
					"type": "uint256"
				}
			],
			"name": "depositUSDC",
			"outputs": [],
			"stateMutability": "nonpayable",
			"type": "function"
		},
		{
			"inputs": [
				{
					"internalType": "uint256",
					"name": "l2ContractAddress",
					"type": "uint256"
				}
			],
			"name": "modifyL2Address",
			"outputs": [],
			"stateMutability": "nonpayable",
			"type": "function"
		},
		{
			"inputs": [
				{
					"internalType": "address",
					"name": "",
					"type": "address"
				}
			],
			"name": "starkeys",
			"outputs": [
				{
					"internalType": "uint256",
					"name": "",
					"type": "uint256"
				}
			],
			"stateMutability": "view",
			"type": "function"
		},
		{
			"inputs": [
				{
					"internalType": "uint256",
					"name": "",
					"type": "uint256"
				}
			],
			"name": "userBalances",
			"outputs": [
				{
					"internalType": "uint256",
					"name": "",
					"type": "uint256"
				}
			],
			"stateMutability": "view",
			"type": "function"
		},
		{
			"inputs": [
				{
					"internalType": "uint256",
					"name": "amount",
					"type": "uint256"
				},
				{
					"internalType": "uint256",
					"name": "user",
					"type": "uint256"
				}
			],
			"name": "withdrawUSDC",
			"outputs": [],
			"stateMutability": "nonpayable",
			"type": "function"
		}
	],
	"bytecode": "0x60a06040527399097dd486e689d8268aa18fcff87689b5681f01600160006101000a81548173ffffffffffffffffffffffffffffffffffffffff021916908373ffffffffffffffffffffffffffffffffffffffff16021790555034801561006557600080fd5b506040516110a93803806110a983398181016040528101906100879190610119565b806000806101000a81548173ffffffffffffffffffffffffffffffffffffffff021916908373ffffffffffffffffffffffffffffffffffffffff1602179055503373ffffffffffffffffffffffffffffffffffffffff1660808173ffffffffffffffffffffffffffffffffffffffff1660601b815250505061018b565b60008151905061011381610174565b92915050565b60006020828403121561012b57600080fd5b600061013984828501610104565b91505092915050565b600061014d82610154565b9050919050565b600073ffffffffffffffffffffffffffffffffffffffff82169050919050565b61017d81610142565b811461018857600080fd5b50565b60805160601c610f006101a9600039600061012a0152610f006000f3fe608060405234801561001057600080fd5b50600436106100575760003560e01c8063051475dd1461005c5780636222a6581461008c57806388e08665146100a8578063e740010f146100c4578063ea07c107146100e0575b600080fd5b61007660048036038101906100719190610a1f565b610110565b6040516100839190610cb1565b60405180910390f35b6100a660048036038101906100a19190610a1f565b610128565b005b6100c260048036038101906100bd9190610a71565b61018a565b005b6100de60048036038101906100d99190610a71565b610275565b005b6100fa60048036038101906100f591906109cd565b6104d9565b6040516101079190610cb1565b60405180910390f35b60036020528060005260406000206000915090505481565b7f000000000000000000000000000000000000000000000000000000000000000073ffffffffffffffffffffffffffffffffffffffff163373ffffffffffffffffffffffffffffffffffffffff161461018057600080fd5b8060028190555050565b61019760025482846104f1565b600160009054906101000a900473ffffffffffffffffffffffffffffffffffffffff1673ffffffffffffffffffffffffffffffffffffffff1663a9059cbb33846040518363ffffffff1660e01b81526004016101f4929190610c48565b602060405180830381600087803b15801561020e57600080fd5b505af1158015610222573d6000803e3d6000fd5b505050506040513d601f19601f8201168201806040525081019061024691906109f6565b508160036000838152602001908152602001600020600082825461026a9190610dda565b925050819055505050565b6000600160009054906101000a900473ffffffffffffffffffffffffffffffffffffffff1673ffffffffffffffffffffffffffffffffffffffff166370a08231306040518263ffffffff1660e01b81526004016102d29190610bf6565b60206040518083038186803b1580156102ea57600080fd5b505afa1580156102fe573d6000803e3d6000fd5b505050506040513d601f19601f820116820180604052508101906103229190610a48565b9050600160009054906101000a900473ffffffffffffffffffffffffffffffffffffffff1673ffffffffffffffffffffffffffffffffffffffff166323b872dd3330866040518463ffffffff1660e01b815260040161038393929190610c11565b602060405180830381600087803b15801561039d57600080fd5b505af11580156103b1573d6000803e3d6000fd5b505050506040513d601f19601f820116820180604052508101906103d591906109f6565b506000600160009054906101000a900473ffffffffffffffffffffffffffffffffffffffff1673ffffffffffffffffffffffffffffffffffffffff166370a08231306040518263ffffffff1660e01b81526004016104339190610bf6565b60206040518083038186803b15801561044b57600080fd5b505afa15801561045f573d6000803e3d6000fd5b505050506040513d601f19601f820116820180604052508101906104839190610a48565b90508382826104929190610dda565b1461049c57600080fd5b836003600085815260200190815260200160002060008282546104bf9190610d84565b925050819055506104d360025484866106f8565b50505050565b60046020528060005260406000206000915090505481565b6000600367ffffffffffffffff811115610534577f4e487b7100000000000000000000000000000000000000000000000000000000600052604160045260246000fd5b6040519080825280602002602001820160405280156105625781602001602082028036833780820191505090505b5090506000816000815181106105a1577f4e487b7100000000000000000000000000000000000000000000000000000000600052603260045260246000fd5b60200260200101818152505082816001815181106105e8577f4e487b7100000000000000000000000000000000000000000000000000000000600052603260045260246000fd5b602002602001018181525050818160028151811061062f577f4e487b7100000000000000000000000000000000000000000000000000000000600052603260045260246000fd5b60200260200101818152505060008054906101000a900473ffffffffffffffffffffffffffffffffffffffff1673ffffffffffffffffffffffffffffffffffffffff16632c9dd5c085836040518363ffffffff1660e01b8152600401610696929190610ccc565b600060405180830381600087803b1580156106b057600080fd5b505af11580156106c4573d6000803e3d6000fd5b50505050816003600085815260200190815260200160002060008282546106eb9190610d84565b9250508190555050505050565b680100000000000000008110610743576040517f08c379a000000000000000000000000000000000000000000000000000000000815260040161073a90610c71565b60405180910390fd5b6003600083815260200190815260200160002054811115610799576040517f08c379a000000000000000000000000000000000000000000000000000000000815260040161079090610c91565b60405180910390fd5b806003600084815260200190815260200160002060008282546107bc9190610dda565b925050819055506000600267ffffffffffffffff811115610806577f4e487b7100000000000000000000000000000000000000000000000000000000600052604160045260246000fd5b6040519080825280602002602001820160405280156108345781602001602082028036833780820191505090505b5090508281600081518110610872577f4e487b7100000000000000000000000000000000000000000000000000000000600052603260045260246000fd5b60200260200101818152505081816001815181106108b9577f4e487b7100000000000000000000000000000000000000000000000000000000600052603260045260246000fd5b60200260200101818152505060008054906101000a900473ffffffffffffffffffffffffffffffffffffffff1673ffffffffffffffffffffffffffffffffffffffff16633e3aa6c5857ec73f681176fc7b3f9693986fd7b14581e8d540519e27400e88b8713932be01846040518463ffffffff1660e01b815260040161094193929190610cfc565b600060405180830381600087803b15801561095b57600080fd5b505af115801561096f573d6000803e3d6000fd5b5050505050505050565b60008135905061098881610e85565b92915050565b60008151905061099d81610e9c565b92915050565b6000813590506109b281610eb3565b92915050565b6000815190506109c781610eb3565b92915050565b6000602082840312156109df57600080fd5b60006109ed84828501610979565b91505092915050565b600060208284031215610a0857600080fd5b6000610a168482850161098e565b91505092915050565b600060208284031215610a3157600080fd5b6000610a3f848285016109a3565b91505092915050565b600060208284031215610a5a57600080fd5b6000610a68848285016109b8565b91505092915050565b60008060408385031215610a8457600080fd5b6000610a92858286016109a3565b9250506020610aa3858286016109a3565b9150509250929050565b6000610ab98383610bd8565b60208301905092915050565b610ace81610e0e565b82525050565b6000610adf82610d4a565b610ae98185610d62565b9350610af483610d3a565b8060005b83811015610b25578151610b0c8882610aad565b9750610b1783610d55565b925050600181019050610af8565b5085935050505092915050565b6000610b3f600f83610d73565b91507f496e76616c696420616d6f756e742e00000000000000000000000000000000006000830152602082019050919050565b6000610b7f602783610d73565b91507f546865207573657227732062616c616e6365206973206e6f74206c617267652060008301527f656e6f7567682e000000000000000000000000000000000000000000000000006020830152604082019050919050565b610be181610e4c565b82525050565b610bf081610e4c565b82525050565b6000602082019050610c0b6000830184610ac5565b92915050565b6000606082019050610c266000830186610ac5565b610c336020830185610ac5565b610c406040830184610be7565b949350505050565b6000604082019050610c5d6000830185610ac5565b610c6a6020830184610be7565b9392505050565b60006020820190508181036000830152610c8a81610b32565b9050919050565b60006020820190508181036000830152610caa81610b72565b9050919050565b6000602082019050610cc66000830184610be7565b92915050565b6000604082019050610ce16000830185610be7565b8181036020830152610cf38184610ad4565b90509392505050565b6000606082019050610d116000830186610be7565b610d1e6020830185610be7565b8181036040830152610d308184610ad4565b9050949350505050565b6000819050602082019050919050565b600081519050919050565b6000602082019050919050565b600082825260208201905092915050565b600082825260208201905092915050565b6000610d8f82610e4c565b9150610d9a83610e4c565b9250827fffffffffffffffffffffffffffffffffffffffffffffffffffffffffffffffff03821115610dcf57610dce610e56565b5b828201905092915050565b6000610de582610e4c565b9150610df083610e4c565b925082821015610e0357610e02610e56565b5b828203905092915050565b6000610e1982610e2c565b9050919050565b60008115159050919050565b600073ffffffffffffffffffffffffffffffffffffffff82169050919050565b6000819050919050565b7f4e487b7100000000000000000000000000000000000000000000000000000000600052601160045260246000fd5b610e8e81610e0e565b8114610e9957600080fd5b50565b610ea581610e20565b8114610eb057600080fd5b50565b610ebc81610e4c565b8114610ec757600080fd5b5056fea264697066735822122098318c00815e01f9f520ead4a1ffa1bb3f1f558c9b8ddae70c850b8c3b91509864736f6c63430008000033",
	"linkReferences": {},
	"deployedLinkReferences": {}
}